:020000040800F2
:10000000F05F00205D020008E5160008ED1400080E
:10001000611600080F040008711B000800000000B2
:100020000000000000000000000000009D0100082A
:100030001104000800000000F9010008051700087D
:1000400077020008770200087702000877020008AC
:10005000770200087702000877020008770200089C
:10006000770200087702000877020008770200088C
:10007000770200087702000877020008770200087C
:10008000770200087702000877020008770200086C
:10009000770200087702000877020008770200085C
:1000A000770200087702000877020008770200084C
:1000B000770200087702000877020008770200083C
:1000C000770200087702000877020008770200082C
:1000D0007702000877020008591B0008651B00081A
:1000E000770200087702000877020008770200080C
:1000F00077020008770200087702000877020008FC
:1001000077020008770200087702000877020008EB
:10011000770200087702000877020008D11700086C
:1001200077020008770200087702000877020008CB
:1001300077020008770200087702000877020008BB
:1001400077020008770200087702000877020008AB
:10015000770200087702000877020008770200089B
:10016000770200087702000877020008770200088B
:1001700077020008770200087702000800000000FC
:100180007702000877020008DFF80CD000F002F9CF
:100190000048004759260008F05F00202C4B1968E2
:1001A0000868B0E8F04F80F30988BFF36F8F4FF015
:1001B000000080F3118870470000000008480068C4
:1001C000006880F308884FF0000080F3148862B65E
:1001D00061B6BFF34F8FBFF36F8F00DF00BF00BF6B
:1001E00008ED00E0DFF80C00016841F470010160E7
:1001F000704700BF88ED00E0EFF30980BFF36F8F19
:10020000134B1A681EF0100F08BF20ED108A20E96A
:10021000F04F106009B44FF0500080F31188BFF325
:100220004F8FBFF36F8F03F0E1FA4FF0000080F3C0
:10023000118809BC19680868B0E8F04F1EF0100F6B
:1002400008BFB0EC108A80F30988BFF36F8F704746
:1002500038000020EFF30580704700000648804713
:1002600006480047FEE7FEE7FEE7FEE7FEE7FEE79B
:10027000FEE7FEE7FEE7FEE7B51700088901000884
:100280002DE9F05F0546002092469B4688460646CB
:10029000814640241BE0284641464746224600F05E
:1002A00069F853465A46C01A914110D31146184670
:1002B000224600F050F82D1A67EB01084F462246FF
:1002C0000120002100F047F817EB00094E41201EE5
:1002D000A4F10104DFDC484631462A464346BDE826
:1002E000F09F40EA01039B0703D009E008C9121FF1
:1002F00008C0042AFAD203E011F8013B00F8013BE0
:10030000521EF9D27047D2B201E000F8012B491E0B
:10031000FBD270470022F6E710B513460A460446A2
:100320001946FFF7F0FF204610BD30B50B460146D9
:1003300000202022012409E021FA02F59D4205D384
:1003400003FA02F5491B04FA02F52844151EA2F12E
:100350000102F1DC30BD202A04DB203A00FA02F170
:10036000002070479140C2F1200320FA03F31943A3
:1003700090407047202A04DB203A21FA02F0002145
:10038000704721FA02F3D040C2F1200291400843A5
:1003900019467047064C074D06E0E06840F001033F
:1003A00094E8070098471034AC42F6D3FFF7F0FE0C
:1003B000AC4C0008CC4C000870B58C1810F8015BF0
:1003C00015F0070301D110F8013B2A1106D110F8EE
:1003D000012B03E010F8016B01F8016B5B1EF9D1F2
:1003E0002B0705D40023521E0DD401F8013BFAE778
:1003F00010F8013BCB1A921C03E013F8015B01F8E3
:10040000015B521EF9D5A142D8D3002070BDFEE792
:10041000704702F0BBBF704702F0D8BF90F83510AC
:10042000022903D08021416501207047052180F811
:1004300035100068016821F001010160002070475B
:100440002DE9F04F0022DFF838B101264FF00F09F7
:1004500006FA02F401EA0403A3427DD122F0030765
:100460005F44D7F8088895074FEA157C09FA0CFA1B
:100470000AEA0805DFF80C81404502D14FF0000878
:1004800032E0DFF80481404502D14FF001082BE053
:10049000DFF8F880404502D14FF0020824E0DFF891
:1004A000F080404502D14FF003081DE0DFF8E48002
:1004B000404502D14FF0040816E0DFF8DC804045EB
:1004C00002D14FF005080FE0DFF8D080404502D19F
:1004D0004FF0060808E0DFF8C880404502D14FF031
:1004E000070801E04FF0080808FA0CF8A84522D1E7
:1004F0002C4DD5F800C02CEA030CC5F800C005F15E
:10050000040CDCF800509D43CCF800500CF10405BD
:10051000D5F800C02CEA030CC5F800C02D1DD5F895
:1005200000C02CEA030CC5F800C0D7F8085825EA2B
:100530000A05C7F80858056857000323BB409D43C8
:100540000560D50800EB8505D5F820C057074FEAB0
:10055000D76809FA08F700E00CE02CEA070CC5F8A8
:1005600020C0C5689D43C5604568A5434560846853
:100570009C438460521C102AFFF46AAFBDE8F08FE0
:100580000030014000000240000402400008024028
:10059000000C02400010024000140240001802400B
:1005A000001C0240003C01402DE9F84F00224FF0B2
:1005B000010803254FF00F0E0B6808FA02F42340E0
:1005C000A3426ED14E68012E05D0022E03D0112E0B
:1005D00001D0122E12D186684FEA420C05FA0CF7B0
:1005E000BE43CF6807FA0CF7374387604668A643D7
:1005F0000C79C4F30014944034434460C668570037
:1006000005FA07FC8C6826EA0C06BC403443C4603B
:100610004C68022C01D0122C13D1D40800EB8404B6
:10062000A346D4F8209054074FEAD46A0EFA0AF68B
:1006300029EA06090E6906FA0AF646EA0906CBF81F
:10064000206006680C7926EA0C0604F00304BC401E
:10065000344304604C68E40065D5364C266846F4A3
:1006600080462660246822F0030604F48044009447
:10067000314C3444A446D4F808489607370F0EFA94
:1006800007F6B4432D4EB04201D1002624E02C4E93
:10069000B04201D101261FE02A4EB04202D102260B
:1006A0001AE040E0284EB04201D1032614E0274E64
:1006B000B04201D104260FE0254EB04201D10526FB
:1006C0000AE0244EB04201D1062605E0224EB04297
:1006D00001D1072600E00826BE402643CCF8086872
:1006E0001E4E34684F689C43FF0300D51C433460A2
:1006F0001A4C241D26684F689E43BF0300D51E4335
:100700002660164E083634684F689C43FF0200D5B9
:100710001C433460114E0C3634684F689C43BF0252
:1007200000D51C433460521C102AFFF445AFBDE8CD
:10073000F88F0000443802400030014000000240C1
:100740000004024000080240000C02400010024079
:100750000014024000180240001C0240003C01400E
:100760000AB1816170470904FBE700000148806815
:100770007047000028000020024881680278114478
:1007800081607047280000200B4810B5016841F4D3
:1007900000710160016841F480610160016841F409
:1007A00080710160032000F09DF8002000F006F841
:1007B00000F03EF8002010BD003C024010B501469C
:1007C00088B00022372000F06DF8372000F05DF887
:1007D00013480024016841F020010160006805A968
:1007E00000F020000690684600F028F900F046F975
:1007F0000C494000B0FBF1F10C480B4A491E026065
:1008000040F2E732C0E90324C0E9011400F036FBEE
:1008100010B1012008B010BD044800F04BFBF9E70F
:100820004038024040420F000014004018020020EF
:100830000C4882B0016841F480410160006800F416
:10084000804000900748001F016841F0805101601E
:100850000068002200F0805000900F21901E02B02E
:1008600000F020B84438024000280DDB00F01F02E1
:10087000012191404009800000F1E020C0F8801182
:10088000BFF34F8FBFF36F8F7047002809DB00F075
:100890001F02012191404009800000F1E020C0F8D2
:1008A00000117047F0B40E4B1B680C46C3F30223D3
:1008B000C3F10705042D00D90425191D072901D20C
:1008C000002300E0DB1E012606FA05F1491E214047
:1008D00099409E40761E16403143F0BC01F05AB953
:1008E0000CED00E0064900F0070208684FF6FF0330
:1008F000184040EA0220034A104308607047000095
:100900000CED00E00000FA052DE9F0470E46050069
:1009100065D0DFF81481D8F80000F7B200F00F00BE
:10092000B04207D288F80070D8F8000000F00F003D
:10093000B04254D128683D4C810712D5400703D5F9
:10094000206840F4E05020602878000703D5206834
:1009500040F4604020602068A96820F0F00008435F
:1009600020602878C0072DD03049686808390128F0
:1009700012D0022813D0032811D009688907002952
:100980002DDA216821F0030101432160FFF7EEFE1B
:10099000814641F2883A0EE009688903EFE7096869
:1009A0008901ECE7FFF7E2FEA0EB0901514502D90E
:1009B0000320BDE8F0872068696800F00C00B0EB08
:1009C000810FEFD1D8F80010404601F00F01B1427D
:1009D00007D90770006800F00F00B04201D0012075
:1009E000E7E72878400705D52068E96820F4E0505B
:1009F000084320602878000706D52068296920F47C
:100A0000604040EAC100206000F058F82168084AC0
:100A1000C1F30311515CC8400649086006480068EC
:100A2000FFF7CCFE0020C4E7003C0240083802403B
:100A3000584A0008340000202C0000200F220260D9
:100A40000C4A136803F003034360136803F0F003D8
:100A50008360136803F4E053C36012684FF4E053FB
:100A600003EAD20202610448006800F00F00086047
:100A70007047000008380240003C02400448054925
:100A800000680968044AC1F38221515CC84070477C
:100A90003400002008380240684A0008044805492C
:100AA00000680968044AC1F34231515CC84070478C
:100AB0003400002008380240684A0008154810B584
:100AC000006810F00C02144813D04110042A0FD013
:100AD000082A0ED10F4C241F2268236802F03F021F
:100AE0005B0207D52068C0F38810A0FB010106E077
:100AF000084610BD2168C1F38811A1FB0001002345
:100B0000FFF7BEFB2168C1F30141491C4900B0FB5E
:100B1000F1F010BD083802400024F4002DE9F84F30
:100B2000040076D02078DFF838A3CE4DC00749D036
:100B3000DAF800105046C1F38101012908D000689D
:100B4000C0F3810002280AD1281D0068400206D5A2
:100B50002868800336D560680028E2D032E06068FB
:100B6000B0F5803F10D0B0F5A02F286810D020F449
:100B700080302860286820F4802028606068A0B158
:100B8000FFF7F4FD06460CE0286840F48030F4E7F7
:100B900040F480202860F7E7FFF7E8FD801B642819
:100BA00073D828688003F7D50CE0FFF7DFFD064611
:100BB00005E000BFFFF7DAFD801B6428F0D8286845
:100BC0008003F7D42078DFF8A08280074FF0000977
:100BD0003ED5DAF80010504611F00C0F09D000682D
:100BE000C0F3810002280BD19D48001F006840021D
:100BF00006D42868800715D5E068012809D111E0DE
:100C0000E068B8B10120C8F80000FFF7AFFD064664
:100C100005E020E1FFF7AAFD801B0228C0D8286864
:100C20008007F7D52868216920F0F80040EAC10064
:100C300028600DE0C8F80090FFF798FD064604E034
:100C4000FFF794FD801B02281FD828688007F7D47F
:100C50002078000722D5824E844861696C3671B1D4
:100C600001210160FFF782FD074604E0FFF77EFDEA
:100C7000C01B022809D830688007F7D50EE0C0F8FD
:100C80000090FFF773FD074605E082E0FFF76EFD79
:100C9000C01B02287DD830688007F7D42078400731
:100CA00068D5DFF8BCB100270BF1380BDBF800008A
:100CB000C0000BD4DBF8001041F08051CBF80010DD
:100CC000DBF80000012700F080500090684E30688B
:100CD000C00510D4306840F480703060FFF746FDE6
:100CE000009005E0FFF742FD0099401A022850D815
:100CF0003068C005F6D55A4EA068683601280FD076
:100D00000528306810D020F001003060306820F0F5
:100D100004003060A068B8B1FFF728FD00900FE034
:100D2000306840F00100F4E740F004003060F7E77D
:100D3000FFF71CFD0099411A41F28830814266D8C4
:100D400030688007F4D50EE0FFF710FD009007E053
:100D5000FFF70CFD0099411A41F28830814256D8C4
:100D600030688007F4D42FB1DBF8001021F08051F7
:100D7000CBF80010A069D0B3DAF800205146C2F3D6
:100D80008102022A4AD00228484607D0C8F86000EB
:100D900000E03CE0FFF7EAFC04463BE04746C8F8C9
:100DA0006000FFF7E3FC064605E000BFFFF7DEFC4E
:100DB000801B02282BD828688001F7D4D4E90701CA
:100DC0000843A16A2B4A490802EB0141626A41EAE1
:100DD0008211084394F82C1040EA01612048001F5A
:100DE000016001203866FFF7C1FC044605E034E0ED
:100DF000FFF7BCFC001B022809D828688001F7D542
:100E00002BE000BFFFF7B2FC001B022802D9032031
:100E1000BDE8F88F28688001F4D41EE00128F7D0DF
:100E20000868E26900F48001914214D1226A00F05E
:100E30003F0191420FD147F6C071626A0140914271
:100E400009D1A26A00F44031914204D1E16A00F074
:100E50007060884201D00120DAE70020D8E7000066
:100E6000083802400038024000004742800E4742E6
:100E7000007000400000FFFF7047704710B504008D
:100E800003D094F83D0010B107E0012010BD002010
:100E900084F83C00204600F00CF8022084F83D0065
:100EA000211D206800F09AFC012084F83D000020FC
:100EB00010BD70470168CA6842F00102CA6000684C
:100EC000816801F00701062903D0016841F00101A2
:100ED000016000207047704770B5044600680169E2
:100EE0004FF00005C943890715D4C168C943890774
:100EF00011D4E91E016101202077206880698007F4
:100F0000204602D0FFF7E7FF04E000F098F8204603
:100F100000F096F8257720680169C943490717D47E
:100F2000C168C943490713D46FF00401016102206D
:100F300020772068806910F4407F204602D0FFF7B8
:100F4000CAFF04E000F07BF8204600F079F825772E
:100F500020680169C943090716D4C168C943090754
:100F600012D46FF008010161042020772068C06965
:100F70008007204602D0FFF7AEFF04E000F05FF8E4
:100F8000204600F05DF8257720680169C943C9064D
:100F900017D4C168C943C90613D46FF010010161A9
:100FA000082020772068C06910F4407F204602D0D6
:100FB000FFF791FF04E000F042F8204600F040F80F
:100FC000257720680169C943C90708D1C168C943A9
:100FD000C90704D1891E0161204600F033F820685A
:100FE0000169C943090609D4C168C943090605D482
:100FF0006FF0800101612046FFF73EFF2068016924
:10100000C943490609D4C168C943490605D46FF0EC
:1010100040010161204600F01FF820680169C943C2
:1010200089060BD4C168C943890607D46FF0200133
:1010300001612046BDE87040FFF71FBF70BD7047DB
:101040007047000000680349884201D1FFF794BB54
:101050007047000000140040704710B5040013D022
:10106000242084F839002068C16821F40051C1604F
:10107000204600F015F90020E06384F8390084F878
:101080003A0084F8380010BD012010BD70B5044648
:1010900018481949194D844212D1086840F40020BB
:1010A0000860086820F4002008601248FFF7D5FFA8
:1010B000104800F0C3F812A000F05CFD686815E06D
:1010C0000C484038844214D1086840F4801008600D
:1010D000086820F4801008602046FFF7BEFF204615
:1010E00000F0ACF80BA000F045FD2868BDE87040AA
:1010F000004770BDD8010020203802401C000020AD
:101100000D0A2044656275672055415254332045CD
:10111000525200000D0A204670676120554152541A
:10112000322045525200000070B502680446106833
:10113000D168536910F00F0F52D003F0010501F48C
:1011400090762E435FD0C20705D0CA0503D5E26B67
:1011500042F00102E263420705D5DA0703D0E26BF1
:1011600042F00202E263820705D5DA0703D0E26BA0
:1011700042F00402E263020707D501F020022A438D
:1011800003D0E26B42F00802E263E26B002A33D044
:10119000800604D5880602D5204600F099FB206819
:1011A0004069E16BC0F38010090700D428B32046E2
:1011B00000F080FB2068416949061AD5416921F099
:1011C00040014161606BA0B11B490165606BFFF795
:1011D00025F9002810D0606B016DBDE8704008470C
:1011E000830610D58B060ED52046BDE8704000F072
:1011F0006FBB2046FFF74AFF70BD2046FFF746FF52
:101200000020E06370BD030606D50B0604D520461A
:10121000BDE8704000F03CBC4006F3D54806F1D56F
:10122000D168204621F04001D160202184F8391096
:1012300000F05BF970BD0000A518000870B504004F
:1012400004D094F83900002510B106E0012070BDEB
:1012500084F83850204600F04FF8242084F83900F4
:101260002068C16821F40051C160204600F07CFB79
:101270002068016921F4904101612068416921F0F1
:101280002A0141612068C16841F40051C160E563F1
:10129000202084F8390084F83A00002070BD000056
:1012A00010B5104A01681048914209D1016821F433
:1012B000003101600C210D48FFF7C2F826200CE038
:1012C0000B4A91420DD1016821F4802101604FF455
:1012D00040610848FFF7B4F82720BDE81040FFF749
:1012E000C3BA10BD00440040403802400000024034
:1012F0000048004000040240F0B587B004461421C5
:101300006846FFF707F82848264F26682649103810
:101310000222012303240725BE421DD10E6846F494
:1013200000360E60096801F400310591016841F052
:10133000010101600068694600F0010005900C2081
:101340008DE83D001948FFF72FF9002205212620DE
:10135000FFF7A8FA262020E0154FBE421FD10E68E5
:1013600046F480260E60096801F480210591016829
:1013700041F0020101600068694600F0020005903A
:101380004FF440608DE83D000A48FFF70DF9002258
:1013900005212720FFF786FA2720FFF776FA07B006
:1013A000F0BD000000440040403802400000024010
:1013B000004800400004024090F83A30202B22D12F
:1013C000F9B1F2B190F83830012B1CD081628285DE
:1013D000C2850021C163222280F83A2080F83810AB
:1013E0000168CA6842F48072CA6001684A6942F0C2
:1013F00001024A610068C16841F02001C16000201B
:10140000704701207047022070470000064A0749D4
:10141000904201D1486804E0034A403A904201D129
:101420000868004770470000D80100201400002021
:101430002DE9F843044690F839001F4616460D463C
:10144000202850D1B5B1AEB194F8380001284AD067
:10145000012084F838004FF00008C4F83C802120B7
:1014600084F83900FFF782F9A6848146E68484F87F
:10147000388026E00120BDE8F883E08C401EE0843F
:10148000A0684B46B0F5805F4FF000024FF080013E
:101490002046009703D000F02CFBE8B90DE000F0E7
:1014A00028FBC8B928882168C0F308004860206973
:1014B00008B16D1C05E0AD1C03E0216815F8010BB7
:1014C0004860E08C0028D8D14B46002240212046BD
:1014D000009700F00EFB08B10320CCE7202084F831
:1014E00039000020C7E70220C5E77047FEE700008B
:1014F00010B58CB000200A900AA801F0CEF80C4C70
:1015000014220C4920616846FEF7EBFE0021684674
:1015100001F034F90749E0601422143105A8FEF700
:10152000E0FE002105A801F029F9A0600CB010BD73
:1015300000000020304A00082DE9F04186B0142157
:101540006846FEF7E7FE27480024016841F01001D5
:101550000160016801F010010591016841F080010E
:101560000160016801F080010591016841F001010D
:101570000160016801F001010591016841F002017B
:101580000160016801F002010591016841F040012C
:1015900001600068144F00F04000059000221821FF
:1015A0003846FFF7DDF8DFF844804FF4107600226C
:1015B00031464046FFF7D4F8182000900125CDE9C8
:1015C0000154694638460394FEF7EEFF0096CDE9D4
:1015D0000154694640460394FEF7E6FF06B0BDE8B5
:1015E000F081000030380240001002400018024034
:1015F0000C4810B50A4901604FF4165141600021B2
:1016000081600C22C160C0E904128161C161FFF7F1
:1016100015FE002803D0BDE81040FEF7FCBE10BD4B
:1016200000440040980100200C4810B50A490160B0
:101630004FF461214160002181600C22C160C0E94A
:1016400004128161C161FFF7F9FD002803D0BDE8F4
:101650001040FEF7E0BE10BD00480040D801002059
:10166000FEE700004FF47A750B4C6FF07046284689
:1016700001F007F862883346501C60800421012085
:1016800000F07EFF010003D004A000F073FAEEE743
:101690000BA000F06FFAEAE7000000200D0A654D8C
:1016A000424D617374657252657157726974654316
:1016B0006F696C206572726F723A202564000000B9
:1016C0000D0A654D424D61737465725265715772B2
:1016D000697465436F696C20737563636573732107
:1016E000000000007047000000234FF41652022152
:1016F000184600F0C1FC00F029FB00BF00F00AFD15
:10170000FCE7000010B5502080F31188BFF34F8F25
:10171000BFF36F8F02F074FF18B104494FF080508F
:101720000860002080F3118810BD000004ED00E087
:1017300030B593B030216846FEF7ECFD14210CA8BB
:10174000FEF7E8FD19480025016841F0805101606D
:10175000006800F0805011901548016841F4804104
:1017600001600068022400F4804011900120009084
:10177000000401908001CDE9064008AA0420A821B8
:1017800082E813000B906846FFF7C8F90CA90F20F8
:1017900081E831004FF4A0500F90E0021090052135
:1017A0000CA8FFF7B1F813B030BD0000403802407C
:1017B000007000400548016841F470010160034970
:1017C0004FF00060803908607047000088ED00E04D
:1017D0000148FFF781BB000018020020F0B5026845
:1017E000254C264D264E274F274B4FF0804CA042CC
:1017F00009D0604507D0A84205D0B04203D0B84216
:1018000001D0984204D122F0700E4A6842EA0E02DA
:10181000A0421BD0604519D0A84217D0B04215D0C5
:10182000B84213D0984211D0184DA8420ED0184D8E
:10183000A8420BD0174DA84208D0174DA84205D09A
:10184000164DA84202D0164DA84203D122F440758D
:10185000CA682A434D6922F080022A4302608A68DE
:10186000C2620A688262A04201D0984201D109692D
:10187000016301214161F0BD00000140000400400E
:1018800000080040000C00400004014000400140FE
:10189000004401400048014000180040001C004086
:1018A0000020004010B5806B0021C185C184FFF786
:1018B000EDFB10BD0168CA6822F49072CA6001682D
:1018C0004A6922F001024A61202180F83A107047EB
:1018D00010B590F83A10222901D0022010BD81687D
:1018E000B1F5805F11D00169002901681FD04968F6
:1018F00001F07F03816A4A1C82620B70C18D491E10
:101900000904090CC18518D02BE00269816A002AFC
:101910000268526805D0D2B20A80816A491C81628D
:10192000ECE7C2F308020A80816A891CF7E74A687B
:10193000816A4B1C83620A70E0E70168CA6822F082
:101940002002CA600168CA6822F48072CA60016815
:101950004A6922F001024A61202180F83A10FFF71B
:1019600055FD002010BD00002DE9F041044600683F
:101970000169E26821F44051114301612169A068C5
:10198000E26908436169114308432168CA6849F262
:101990000C639A430243CA6020684169A26921F43A
:1019A000407111434161E069192764253226B0F581
:1019B000004F354A354920684FF0000806D088426C
:1019C00001D0904236D1FFF769F835E0884201D066
:1019D000904202D1FFF762F801E0FFF74FF861682B
:1019E0004A18A0FB070148EB0803FEF749FC014633
:1019F000B0FBF5F00201B1FBF5F06FF018035843AE
:101A000001EB800006EBC000B0FBF5F000F0F80041
:101A100002EB4002B1FBF5F0584301EB800006EB0E
:101A2000C000B0FBF5F000F00700216810448860AA
:101A3000BDE8F081FFF722F861688B0F8A00A0FBF8
:101A40000701FEF71DFC0146B0FBF5F06FF0180230
:101A5000504301EB800006EB0010B0FBF5F000F006
:101A6000F002B1FBF5F002EB0012B1FBF5F06FF004
:101A70001803584301EB800006EB0010B0FBF5F0B3
:101A800000F00F00D1E700000014014000100140F9
:101A900090F83910212901D0022070478168B1F5F2
:101AA000805F016A0BD04A1C0262026809785160AB
:101AB000C18C491E0904090CC1840ED017E00988A5
:101AC0000268C1F30801516001690029016A02D06E
:101AD000491C0162ECE7891CFBE70168CA6822F037
:101AE0008002CA600068C16841F04001C160002006
:101AF00070472DE9F041984617460E460446069D6C
:101B00001DE0681C1BD02DB1FEF730FEA0EB0800D5
:101B1000A84214D92068C16821F4D071C16020683E
:101B2000416921F001014161202084F8390084F8E5
:101B30003A00002084F838000320BDE8F0812068D6
:101B4000006836EA000004D00020B842D9D0002056
:101B5000F3E70120F9E700000148FFF7E5BA0000CC
:101B6000980100200148FFF7DFBA0000D8010020EB
:101B7000FEE700000FB4054B10B503A9044A029814
:101B800000F028F810BC5DF814FB000039260008AE
:101B9000940100200907090E002804DB00F1E02071
:101BA00080F80014704700F00F0000F1E02080F88A
:101BB000141D704702E008C8121F08C1002AFAD19C
:101BC00070477047002001E001C1121F002AFBD1BD
:101BD000704700002DE9FF4F89B09B460446002561
:101BE00006E025280BD05A460B999047641C6D1CC3
:101BF00020780028F5D10DB02846BDE8F08F0027E9
:101C0000B8460122474900E0074314F8013F203B52
:101C100002FA03F00842F7D120782E2819D114F8DF
:101C2000010F47F004072A280ED06FF02F0220780A
:101C3000A0F1300109290CD808EB880102EB410121
:101C400000EB0108641CF2E70A98641C50F8048B4E
:101C50000A9020780028CED0642808D0692806D0C1
:101C600075281ED05A460B9990476D1C58E00A996A
:101C70004FF00A0901C90A91002802DA40422D21D9
:101C800002E0390504D52B218DF82010012103E055
:101C9000F90704D02021F7E78A4608AE0DE00021BD
:101CA000FAE70A994FF00A0901C90A91F7E749468C
:101CB000FEF73BFB303106F8011D0028F7D1ADEBF4
:101CC000060000F12009780701D44FF00108C8454B
:101CD00002DDA8EB090000E000208046002706E0B6
:101CE00008A85A46C05D0B9990476D1C7F1C57454C
:101CF000F6DB04E030205A460B9990476D1CB8F192
:101D00000001A8F10108F5DC05E016F8010B5A46C0
:101D10000B9990476D1CB9F10001A9F10109F4DCA0
:101D2000641C65E70928010070B5064C0D4606499C
:101D30002288401CFEF7D5FA2088401C288000200D
:101D400070BD0000AC000020B03F002070B5064D13
:101D500000246878012802D00624204670BD6869F6
:101D6000804700206870F8E7B0000020F8B50E4604
:101D70000546002401F0A2FF28BB3088022823D3A7
:101D8000684601F017FA009841780A0281781143F9
:101D9000C278491C1302027989B21A43500704D051
:101DA000012000EBD200C0B201E0C2F3C7005AB17B
:101DB0006B78834208D10023A81C00F0FDFA10B113
:101DC00001F075F8044600E003242046F8BDF8B59C
:101DD0000E460546002401F071FF20BB3088022822
:101DE00022D3684601F0E6F9009841780A0281782A
:101DF0001143C278491C1302027989B21A43500771
:101E000004D0012000EBD200C0B201E0C2F3C70051
:101E100052B16B78834207D1A81C00F00BFB10B1C4
:101E200001F045F8044600E003242046F8BDF8B56B
:101E30000E460546002401F041FFF8B9308802281B
:101E40001BD3684601F0B6F9009841780A02817800
:101E50001143C278491C1302027989B21A430CD08B
:101E60006878B0EB420F08D10023A81C00F020FBDB
:101E700020B101F01CF8044600E003242046F8BD20
:101E8000F8B50E460546002401F018FFF0B9308879
:101E900002281AD3684601F08DF9009841780A02A9
:101EA00081781143C278491C1302027989B21A431E
:101EB0000BD06878B0EB420F07D1A81C00F02CFBC8
:101EC00020B100F0F4FF044600E003242046F8BDF2
:101ED000F8B50D460646002401F0F0FE68BB2888E0
:101EE00002282CD3684601F065F9009841780579FD
:101EF0000A0281781143491C8FB2C17845EA012555
:101F000041790A0281791143C279491C1302027A8C
:101F100089B21A437378B3EB450F0FD101230A300E
:101F200000F0C6FA30B900232A463946B01C00F04A
:101F3000BFFA10B100F0BBFF044600E003242046C6
:101F4000F8BD38B50988002405290BD141780A026B
:101F500081781143491C027989B21AB9C278FF2AE3
:101F600003D012B10324204638BD00228DF8012091
:101F7000C078FF280CD08DF8002001231A4668464F
:101F800000F01AFA0028EED000F091FF0446EAE7CC
:101F900001208DF80000F0E710B50988002405291C
:101FA00002D00324204610BD417801230A02817823
:101FB000C01C1143491C89B21A4600F079FA002866
:101FC000F0D000F074FF0446ECE738B50546088809
:101FD0000024052802D001F071FE18B3684601F014
:101FE000E9F868782A790102A8780843401C81B290
:101FF000E87842EA002200985307457904D001238B
:1020000003EBD203DBB201E0C2F3C70352B1AB4230
:1020100008D10123801D00F0CFF920B100F047FF67
:10202000044600E00324204638BD38B50888002463
:10203000052802D001F042FED0B1684601F0BAF89E
:10204000009841780A0281781143C278491C130232
:10205000027989B21A434379B3EB420F08D10123C5
:10206000801D00F025FA20B100F021FF044600E0B9
:102070000324204638BD000070B515460E4608B151
:1020800002251FE0144C13481A4660611348A061F2
:10209000134820611348E06100202062124860620A
:1020A0001248A0621248E0622946304600F0D2F899
:1020B000050007D101F0BEFC30B1012084F8010019
:1020C00001F07EF8284670BD0AA0FFF753FD0325F6
:1020D000F6E7000079230008B00000209D230008E7
:1020E000ED220008A1220008713B0008513C0008C5
:1020F000ED3B00080D0A784D424D617374657250D6
:102100006F72744576656E74496E697420464149F4
:102110004C210000F8B54E4C607808B10620F8BD9F
:10212000684601F069FC01281FD1BDF800000428B1
:102130001CD004DC012818D0022816D104E008289D
:1021400054D0102811D15DE0414AE3690832111DD5
:10215000901F984728B9A0786179884201D104205E
:1021600001E001203CE001F081FC6FE0E168012228
:102170000878E0702271C20902D0487820712CE002
:10218000334F002617F1300717F8361009B3814294
:1021900020D10120207001F091FD80B100F088FF76
:1021A0002081012507EBC60665712949726808314F
:1021B000E06890476D1C2071102DF5DD07E007EBFE
:1021C000C600234942680831E0689047207100202A
:1021D000207002E0761C102ED6DB207918B1022088
:1021E000A0711020BFE700F0D7FF2DE018480C3099
:1021F00000F0E0FF00F05CFFD4E9031302466079D1
:10220000984723E01248A5790C3000F0D3FF25B1A0
:10221000012D0AD0022D17D10FE000F049FF024630
:102220006079E16800F0C2FF0EE000F041FF024675
:102230006079E16800F0B7FF06E000F039FF024680
:102240006079E16800F0ABFF01F082F80020F8BD92
:10225000B00000202DE9F04116460D460746002447
:10226000FEF7D7F8334608222946384601F010FC1D
:1022700001280DD1B5F5964F01D9232003E0074978
:102280006800B1FBF0F080B201F02CFC012800D016
:102290000324FEF7C1F82046BDE8F081A07F1700B7
:1022A0002DE9F0411646884607460025FEF7B1F8AD
:1022B0000C4C6089042804D361890B4800F0E2FECD
:1022C00028B10525FEF7A8F82846BDE8F0810648A4
:1022D000007838706089C01E30800348401CC8F800
:1022E0000000EFE760010020CD4000202DE9F04123
:1022F000002590460F460646102802D90220BDE868
:10230000F081FEF786F8154CE078012808D014A07B
:10231000FFF730FC5FF00505FEF77EF82846EEE794
:10232000781E0127E06027810670228902EB0801F0
:102330002181218900F0A6FE21890E4A5318491CEB
:1023400021811870010A20890244401C20811170EB
:10235000A7700121002000F04FFFDDE760010020A1
:102360000D0A655263765374617465206E6F20693F
:1023700064656C00D03F002010B5FEF74AF80649AE
:102380000020C8700146012000F036FF00F0BAFFBF
:10239000BDE81040FEF740B86001002010B5FEF720
:1023A00038F80021084600F027FF00F081FFBDE863
:1023B0001040FEF731B800002DE9F0470C4690467A
:1023C000012106464FF0000901EBD80500F054FE4C
:1023D0001649641E01EBC0071548083F4188A0B2AA
:1023E00000EB0802402A1BD8401AC0F3CC0400F0CE
:1023F000070A0AE03819641C16F8013BA4B2082247
:10240000514601F06FFC6D1EADB2012DF2D818F0EF
:10241000070207D033783819514601F063FC01E018
:102420004FF001094846BDE8F087000070420020E7
:102430008C0100202DE9F0470C469046012106460C
:102440004FF0000901EBD80500F016FE1649641E96
:1024500001EB40071548BF1E0188A0B200EB08023F
:10246000102A1BD8401AC0F3CC0400F0070A0AE077
:102470003819641C16F8013BA4B20822514601F039
:1024800031FC6D1EADB2012DF2D818F0070207D055
:1024900033783819514601F025FC01E04FF001096D
:1024A0004846BDE8F0870000504200208C01002023
:1024B0002DE9F04115460F460446002600F0DCFDEC
:1024C00000EBC00101EB001011497F1E01EBC001C0
:1024D0001048C839C288B8B24319642B13D8801A7F
:1024E00080B20DE014F8012B120221F8102014F82C
:1024F000013B1A4321F81020401C6D1E80B2ADB282
:10250000002DEFD100E001263046BDE8F08100004B
:10251000704F00208C0100202DE9F04115460F4638
:102520000446002600F0A8FD00EBC00101EB0010FE
:1025300011497F1E01EBC0011048C8398288B8B22A
:102540004319642B13D8801A80B20DE014F8012BC4
:10255000120221F8102014F8013B1A4321F8102030
:10256000401C6D1E80B2ADB2002DEFD100E00126FF
:102570003046BDE8F0810000F04200208C010020D0
:10258000F8B514460D460646102801D90220F8BDBC
:10259000184601F099FBB8B1684600F00BFE3046D2
:1025A00000F0E2FE009806210170290A4170857052
:1025B000210AC1700471052000F0E2FE082001F03C
:1025C00055FA00F003F8F8BD0520F8BD38B5002431
:1025D000601E00900E48234601224FF4F0714068BF
:1025E00001F086F9054601460AA0FFF7C3FA202D3F
:1025F0000CD0402D05D0802D05D0B5F5807F05D1BC
:1026000003E0042402E0032400E00624204638BD51
:10261000700100200D0A654D424D6173746572575B
:102620006169745265717565737446696E69736822
:102630003A2025640000000003490A6850600968D8
:102640000A681206FCD57047D8010020EFF3058018
:10265000002800D001207047FEF796F8FFF768F8D1
:10266000FEF76AFFFEF7C4FFFEF7DEFFFEF740FF4E
:1026700000F00EF8FEE701460020842900D0C81CB7
:10268000704710B500B9012000F054FF002010BDC4
:1026900010B501F06BF8002010BD012001F0B2BBB5
:1026A00010B5012901D0002010BD03220021012016
:1026B00001F0BAFB040004D000231A46194601F0C9
:1026C0001BFC204610BD000038B5002405460094D0
:1026D000FFF7BCFF90B16946284601F01BFD0128B9
:1026E00001D0FF2038BD009888B10A494FF08050D2
:1026F0000860BFF34F8FBFF36F8F08E000231A46C7
:102700001946284601F0F8FB012800D0FF24204696
:1027100038BD000004ED00E038B505004FF00000C2
:1027200000900FD00024481C0ED001B10C46FFF7DA
:102730008DFFB8B16A460021284601F0D5FD012879
:1027400016D104E0802038BD4FF0FF34EFE7009849
:1027500080B109494FF080500860BFF34F8FBFF33D
:102760006F8F07E02146284601F00CFE012801D0BA
:10277000FF2038BD002038BD04ED00E03EB5044622
:102780000D46B0F90800FFF776FF02A9CDE9000178
:10279000208A2B4682B2D4E9001001F0E9FE01281C
:1027A00001D000203EBD02983EBD00002DE9F04161
:1027B000184C0F46054666692068001D00F07EFC37
:1027C00038B9206890F82C1001208840A169814315
:1027D000A161681C07D137B12168BDE8F0410E48FE
:1027E000091D00F0CDBC20683544B5424560216824
:1027F00005D2A068BDE8F041091D00F0A9BC6068E1
:10280000091D00F0A5FC206B854200D22563BDE8C0
:10281000F081000038000020740300202DE9F04111
:10282000054600F0B3FD2E4C2069401C2061206855
:102830002C4F10B1E06940B32DE0256020690128DC
:1028400029D1002606EB860007EB800000F072FC21
:10285000761C072EF6D323488C3000F06BFC214801
:10286000A03000F067FC1F48B43000F063FC1D4846
:10287000C83000F05FFC1B48DC3000F05BFC1948FE
:102880008C3060601430A06005E02068E96AC06A9E
:10289000884200D82560E06A401CE062E96A0120B5
:1028A000A26988401043A06101EB810007EB800022
:1028B000291D00F065FC00F089FDE06900280CD0BE
:1028C0002068E96AC06A884207D207494FF0805001
:1028D0000860BFF34F8FBFF36F8FBDE8F08100003A
:1028E000380000209802002004ED00E010B500F050
:1028F0004DFD0E4CA068A0B90D4800F01BFC0C4823
:10290000143000F017FC0A48206014306060002288
:102910000C210A2001F088FAA06010B105A100F096
:10292000D3FDBDE8104000F051BD00007400002050
:1029300088030020546D72510000000030B4026C16
:102940000B46002A0BD0C1681144C1604468A14203
:1029500001D30168C16030BC1846FDF7C2BC30BC71
:1029600070472DE9F041856B174604460026026C3E
:1029700082B1C7B1E068FDF7B4FCE168206C091AC8
:10298000E1602268914202D26168081AE060022F79
:1029900016D017E02068A8B9606801F09BFE0646D3
:1029A000002060600EE0A068FDF79BFC216CA06831
:1029B0000844A0606168884204D32068A06001E0F8
:1029C00005B16D1E6D1CA5633046BDE8F08110B5E4
:1029D0000446006B00F00EFD2046BDE8104000F0FC
:1029E00009BD000010484FF47051420706D0C01DC9
:1029F0000D4920F00700411AC1F570510B4A002320
:102A00000144C2E900030839103A21F007011160BE
:102A10004B600B600B1AC0E9001393604FF000404D
:102A20005360D06070470000B00300209800002081
:102A3000154E164CA6F1C8074FF08058DFF850909D
:102A400012E000BF00F0A2FCF068C568281D00F08D
:102A500035FB2069401E2061E068401EE06000F008
:102A6000B5FC2846FFF7B3FFE0680028EAD13868D4
:102A7000012805D9C9F80080BFF34F8FBFF36F8FCE
:102A800000F03CFBF0E7000060030020380000206D
:102A900004ED00E02DE9F0479A46DDE9098481461E
:102AA0006FF00303206B03EB82021044089D20F0BB
:102AB0000706700707D0502080F31188BFF34F8FAF
:102AC000BFF36F8FFEE723180A5C83F834200A5C9B
:102AD00012B1401C1028F6D3002784F84370072D4C
:102AE00000D30625E562C4E91157201D00F02DFB37
:102AF00004F1180000F029FB2461C5F107006462AD
:102B0000A061E76484F8507052464946304600F0B0
:102B100057FA2060B8F1000F01D0C8F80040BDE8B6
:102B2000F087000030B5114900E011460A68824282
:102B3000FBD34B685C18844203D14068184448605A
:102B4000084643681C18944209D1084C103C24687C
:102B5000A24209D052681A4442600A6812680260B0
:102B6000814200D0086030BD0460F9E79800002081
:102B700070B5002441600B4D0061914206D8D11A16
:102B80008269914206D2011D686807E09A4203D229
:102B9000994201D3012403E0011D286800F0D8FA0E
:102BA000204670BD7400002010B5044600F0EEFB16
:102BB000A06B28B15FF0000400F008FC204610BDB7
:102BC0000124F9E730B587B02B4D4BE0049800287D
:102BD00048DB069C606910B1201D00F06FFA02A866
:102BE00000F0B6F8024604980A283BD2DFE800F06D
:102BF0000505053A263705053A260598A1690346D5
:102C000001442046FFF7B4FF00B3616A20468847BD
:102C1000E069012826D1002000900598A1690023D1
:102C200042181946204601F0D3FE78B9502080F3AF
:102C30001188BFF34F8FBFF36F8FFEE70598A06138
:102C400028B1811813462046FFF792FF0AE0502072
:102C500080F31188BFF34F8FBFF36F8FFEE72046DD
:102C600000F0C8FB002204A9A86801F0A1FA00281E
:102C7000ACD107B030BD0000740000202DE9FC414C
:102C80000F46054600F0AAFD01A800F061F80446D1
:102C9000019818B101F0EEFDBDE8FC81224EAFB104
:102CA00070680068A8B30027291B3A46B06800F096
:102CB0001FFC01F0DFFD0028EED11C494FF08050D1
:102CC0000860BFF34F8FBFF36F8FE5E7A542EBD8E6
:102CD00001F0D0FD30682746C068C468201D00F0B0
:102CE000EDF9E069012810D1A0692B4641193A4657
:102CF0002046FFF73DFF40B100200346014600900B
:102D00002A46204601F064FE20B1616A20468847C9
:102D1000C2E707E0502080F31188BFF34F8FBFF365
:102D20006F8FFEE70127BFE77400002004ED00E08D
:102D300006484168096829B14168C968C968496895
:102D4000016370474FF0FF31FAE7000038000020C0
:102D500070B5054601F046FC064E044630698442D3
:102D600003D200F009F8012000E00020286020468E
:102D7000346170BD74000020F8B5194D1FE0C068C3
:102D8000C4680668201D00F099F9616A20468847EA
:102D9000E069012813D1A0693044B04206D924610A
:102DA0006060211D286800F0D3F908E00020034688
:102DB000014600903246204601F00AFE38B12868EC
:102DC00001680029DBD16968C5E90010F8BD502011
:102DD00080F31188BFF34F8FBFF36F8FFEE70000C2
:102DE0007400002008484068401C4FF0500080F3F9
:102DF000118804D0BFF34F8FBFF36F8FFEE7BFF38F
:102E00004F8FBFF36F8FFEE7A00000200346002026
:102E100012B1994302D070470B42FCD00120704799
:102E2000074C2068016841B1C0680021D0F800005B
:102E3000FFF724FFFFF7C6FEF3E701210020F7E7C5
:102E4000740000202DE9F041044600F09FFA94F947
:102E5000455004F1240609E0606A48B1304601F0AB
:102E6000CFFC08B100F094FB6D1E6DB2002DF3DCB9
:102E70004FF0FF3684F8456000F0A8FA00F086FABB
:102E800094F9445004F1100709E0206948B138462C
:102E900001F0B6FC08B100F07BFB6D1E6DB2002D99
:102EA000F3DC84F84460BDE8F04100F08FBA0028FC
:102EB00004D0012803D0072803D004207047022043
:102EC00070470620704700002DE9F04105460027B5
:102ED00000F084FC334E306808B9FFF783FDF068DA
:102EE000054216D1ADB1083568070ED005F00700D0
:102EF000C0F108000544680707D0502080F311880E
:102F0000BFF34F8FBFF36F8FFEE715B17068854237
:102F100002D901F0AFFC36E02248103001460C68BF
:102F200001E020460C466168A94202D221680029CE
:102F3000F7D131688C42ECD0076821680160606885
:102F40000837411B10290ED96019420707D05020BD
:102F500080F31188BFF34F8FBFF36F8FFEE741609F
:102F60006560FFF7DFFD61687068401A7060B268E5
:102F7000904200D2B060F06801430020C4E9000133
:102F800001F078FC0FB900F0D3F8780707D0502093
:102F900080F31188BFF34F8FBFF36F8FFEE7384682
:102FA000BDE8F081880000200449086818B108686D
:102FB000826C521C82640868704700003800002050
:102FC00010B5031F4FF080741C601B1F21F001011E
:102FD0001960191F044B0B6014390A60091F6FF048
:102FE000020244380A6010BDE52D0008084810B5FB
:102FF00009490278074B086843F82020401C086004
:1030000000F030F8054800688047002010BD00003F
:10301000240000200042002078010020D40000207D
:1030200008B5074E074D4FF0FF34012300940022EE
:103030001946B06800F05CFC28688047F5E700009E
:1030400078010020D80000200148006800470000F7
:10305000DC00002013460A4601460148FEF7E8B9A5
:1030600098010020012202490248FEF7A5B900009C
:10307000240000209801002001484079704700009A
:10308000B000002070B5094DFF231A4605F5807683
:1030900006E000BF10F8014B54402A5D5A40335DF2
:1030A000491E89B2F6D242EA032070BD704A000878
:1030B0000148C0887047000060010020D0E901325B
:1030C00001699A60D0E901235A604A68824201D1BD
:1030D00082684A60002202610868401E0860086831
:1030E00070470000044908680A688069D26A096864
:1030F000C2F107028A6170473800002010B5FDF761
:1031000035FB094C616801F5FA7188420BD92278C8
:1031100008210648FDF724FB217801208843207010
:10312000FDF724FB606010BD00000020001002408D
:103130007047704700F108014FF0FF32C0E90112FB
:10314000C160016100210160704700210161704789
:1031500030B50B685A1C02D000F1080202E0026987
:1031600004E02246546825689D42FAD953684B60B2
:1031700099608A60516008610168491C016030BD36
:1031800042684A6093688B609368596091600861F7
:103190000168491C01607047202000F067BC4FF4B3
:1031A000807000F063BC802000F060BC402000F024
:1031B0005DBC00000149016070470000D13F002064
:1031C00008B506A0FEF7D6FC002000900121684655
:1031D000FFF766FA0749086008BD00000D0A764D42
:1031E000424D61737465724F73526573496E6974B1
:1031F000000000007001002038B50D4B0C4608B1EE
:10320000002200E0012240211846FDF7A9FA0948F2
:103210002CB18068BDE83840012100F022BB0021BC
:10322000012300911A461946806800F061FB38BD01
:1032300000180240780100207CB50024C8252946EA
:103240000CA00194FEF796FC022000F087F82A46B5
:10325000164D009401AB0921686801F0B9FB01F03B
:10326000C7F90246009401AB0621686801F0B0FB83
:103270007CBD00000D0A764D424D6173746572503D
:103280006F727454696D657273436F6E7665727494
:1032900044656C6179456E61626C653A2074696D54
:1032A00065725F7469636B3A2025640084010020B5
:1032B0001CB50020019002460090034801AB082194
:1032C000406801F085FB1CBD840100207CB5002412
:1032D00064250120019400F041F82A46084D00942D
:1032E00001AB0921686801F073FB01F081F9024626
:1032F000009401AB0621686801F06AFB7CBD000008
:10330000840100207CB5114D002401942888C0EB75
:10331000001081004FF47A70B1FBF0F14143B1FB32
:10332000F0F6204600F01AF8009401AB324609216D
:10333000686801F04DFB01F05BF90246009401ABB7
:103340000621686801F044FB7CBD00008401002078
:1033500001480068FFF7B8B9700100200149087101
:10336000704700006001002001494871704700006B
:10337000B00000200149887170470000B0000020B3
:103380000149C8807047000060010020502080F390
:103390001188BFF34F8FBFF36F8F0A494868401CF5
:1033A000486001280CD10848006810F0FF0F07D0D2
:1033B000502080F31188BFF34F8FBFF36F8FFEE76C
:1033C00070470000A000002004ED00E008494868B4
:1033D00028B1401E486001D180F311887047502009
:1033E00080F31188BFF34F8FBFF36F8FFEE70000AC
:1033F000A000002070B5002827D0144DA0F10804CB
:103400006168E868014207D1502080F31188BFF35A
:103410004F8FBFF36F8FFEE722683AB1502080F3E1
:103420001188BFF34F8FBFF36F8FFEE78143616059
:1034300000F0D4F960686968084468602046FFF7C6
:1034400071FBBDE8704001F015BA70BD8800002026
:103450004FF0E02000210161816105494FF47A724B
:103460000968B1FBF2F1491E416107210161704712
:103470003400002010B5FCF7EDFE114910280ED3E2
:1034800000F1E02090F8F0030A78904207D2502033
:1034900080F31188BFF34F8FBFF36F8FFEE70948AA
:1034A0000068896800F4E060884207D9502080F302
:1034B0001188BFF34F8FBFF36F8FFEE710BD000081
:1034C000A00000200CED00E010B5084B002200BF6A
:1034D00053F832401CB1521C082AF9D310BD43F8EE
:1034E000321003EBC201486010BD000058020020FA
:1034F00070B515460E460446FFF748FF94F9441090
:103500000020491C01D184F8440094F94510491C5D
:1035100001D184F84500FFF759FFA06B28B92A466E
:10352000314604F1240000F051F82046BDE8704017
:10353000FFF788BC10B5020014D00F48806B38B17B
:10354000502080F31188BFF34F8FBFF36F8FFEE7DA
:1035500000F044F900211046FFF728F901F08AF93C
:10356000002807D105494FF080500860BFF34F8F06
:10357000BFF36F8F10BD00003800002004ED00E0A5
:1035800002498A6A02604969416070473800002038
:1035900001490120486270473800002010B50C46F0
:1035A00050B1094909681831FFF7D2FD2046BDE83E
:1035B00010400121FFF7FAB8502080F31188BFF3C3
:1035C0004F8FBFF36F8FFEE73800002070B51446B1
:1035D0000D4668B10A4909681831FFF7D1FD0CB1F1
:1035E0004FF0FF3521462846BDE87040FFF7DEB8B2
:1035F000502080F31188BFF34F8FBFF36F8FFEE72A
:103600003800002010B51446030011D01048826B1A
:10361000B2B1026841F00041916101681846183169
:10362000FFF7AEFD2046BDE810400121FFF7BEB810
:10363000502080F31188BFF34F8FBFF36F8FFEE7E9
:10364000502080F31188BFF34F8FBFF36F8FFEE7D9
:103650003800002070B504004BD0A26CA2B1606CA1
:10366000884200D30146E06A884242D0012A40D114
:10367000204D2A6894420FD1502080F31188BFF367
:103680004F8FBFF36F8FFEE7502080F31188BFF399
:103690004F8FBFF36F8FFEE7E162A269002A02DB62
:1036A000C1F10701A161144E00EB8000616906EBD6
:1036B000800081421DD1201DFFF700FD012150B97E
:1036C000E06A00EB800256F8222022B9AA6901FACA
:1036D00000F08243AA61E06AAA6981401143A961AE
:1036E00000EB800006EB8000211DBDE87040FFF775
:1036F00047BD70BD380000209802002070B5194EFB
:10370000B26BFAB141F000410160C46814B3FFF735
:10371000D5FC201DFFF7D2FCE16A0125B26905FA4C
:1037200001F01043B06101EB81000F4901EB800013
:10373000211DFFF725FDE06A3168C96A884200D97A
:10374000756270BD502080F31188BFF34F8FBFF3B7
:103750006F8FFEE7502080F31188BFF34F8FBFF3C8
:103760006F8FFEE738000020980200201CB5174834
:103770000024CDE900402346802215A1164800F020
:10378000F7FE012803D101F0FFF8012809D0401C01
:103790001AD1502080F31188BFF34F8FBFF36F8F82
:1037A000FEE7502080F31188BFF34F8FBFF36F8F78
:1037B00006484FF0FF31343801630121C161446193
:1037C000BDE81C4000F0A4BA1CBD00006C00002045
:1037D00049444C4500000000312A00080248816B32
:1037E000491C816370470000380000201448816B39
:1037F00011B1012141627047002141628169B1FA32
:1038000081F1C1F11F0101EB81020E4951F8223013
:103810006BB101EB820101F108034A6852684A600A
:103820009A4201D152684A60D168016070475020C5
:1038300080F31188BFF34F8FBFF36F8FFEE7000057
:10384000380000209802002010B51820FFF73CFB3C
:10385000040004D000202060201DFFF76BFC2046F0
:1038600010BD2DE9F0410027884604000AD05FEA28
:1038700018600FD0502080F31188BFF34F8FBFF333
:103880006F8FFEE7502080F31188BFF34F8FBFF397
:103890006F8FFEE7261D04F10C05FFF79FFF2168DF
:1038A000F06841EA0801216017E0D0E9001601F054
:1038B0007F425301236821F07F4102D40B4203D1A0
:1038C0000AE031EA030307D1D20100D50F43216892
:1038D00041F00071FFF712FF3046A842E5D12068A1
:1038E000B843206000F0C6FF2068BDE8F08100000A
:1038F0002DE9F0479A46DDF8209090460D460400E9
:103900004FF0000709D0280E0FD0502080F3118807
:10391000BFF34F8FBFF36F8FFEE7502080F3118806
:10392000BFF34F8FBFF36F8FFEE71DB100F04CFE6A
:1039300040B112E0502080F31188BFF34F8FBFF3E6
:103940006F8FFEE7B9F1000F07D0502080F3118888
:10395000BFF34F8FBFF36F8FFEE7FFF73FFF266880
:10396000524629463046FFF751FA30B1B8F1000F00
:103970001AD02068A843206016E0B9F1000F13D0D8
:10398000B8F1000F01D04FF08077BAF1000F01D0ED
:1039900047F0806745EA07014A46201DFFF732FEDF
:1039A00000F068FF18B10AE000F064FF1FE0114961
:1039B0004FF080500860BFF34F8FBFF36F8FFFF75A
:1039C00091FB0646800110D4FFF7E0FC26685246C2
:1039D00029463046FFF71AFA28B1B8F1000F02D095
:1039E0002068A8432060FFF7F1FC26F07F463046B0
:1039F000BDE8F08704ED00E038B504464FF0FF3035
:103A000000900B48002301221F214068FFF770FF40
:103A1000042809D004DC012806D0022805D103E0DF
:103A2000082801D0102800D12080012038BD0000D6
:103A30007001002010B505A0FEF79CF8FFF704FF09
:103A400009490028486000D0012010BD0D0A784DBA
:103A5000424D6173746572506F72744576656E7411
:103A6000496E69740000000070010020014603489F
:103A700010B54068FFF7F5FE012010BD7001002071
:103A800002490978017001207047000024000020DD
:103A900010B50D4986B00B480860FFF7E3FA142211
:103AA0000A496846FCF71DFC00216846FEF766FEE1
:103AB000074C6060FFF7C8FEA060002800D001201E
:103AC00006B010BDED2F000814000020704C000857
:103AD0007801002001B5642201216846FFF7BAFA97
:103AE000012008BD38B50F4C20800FA0FEF742F82A
:103AF00020880023C0EB001081004FF47A70B1FBE6
:103B0000F0F14143B1FBF0F10E4800901A460EA0CF
:103B100000F012FF606010B90FA0FEF72BF8012033
:103B200038BD0000840100200D0A784D424D6173BC
:103B3000746572506F727454696D657273496E6901
:103B400074000000493000086D6173746572207460
:103B5000696D6572000000000D0A207854696D657A
:103B600072437265617465204661696C2E000000C5
:103B7000F8B500276846FFF783FF1A4CE07840B19C
:103B8000194D012805F5807607D0022817D00328A3
:103B900001D1FFF7B7FB3846F8BDFFF789FB0020DE
:103BA000A07060819DF8001060892A18401C608117
:103BB000117060783154401C607002200FE0608901
:103BC000FF280BD89DF8001060892A18401C6081DE
:103BD000117060783154401C6070DAE70320E070A7
:103BE000D7E7000060010020CD40002070B5174DE0
:103BF0000024E87820B1022803D0032804D109E08A
:103C00000120FFF733FF04460120E870A87802285E
:103C10000ED104E00120FFF7ADFB1020F1E728787A
:103C200030B90020FFF7A6FB1020FFF71FFF044666
:103C30000020A870FFF73CFB2879022803D104205C
:103C4000FFF714FF0446204670BD0000600100200D
:103C500070B5184C0025A07810B1012822D104E0DD
:103C600000210120FFF7C8FA1CE0208950B1E0686C
:103C70000078FFF72FFFE068401CE0602089401EBD
:103C800020810FE00C48007870B1002020700021E6
:103C90000120FFF7B1FA0220A0702078012805D09A
:103CA000FFF714FB284670BD0120EFE7FFF7C4FAC9
:103CB000F8E7000060010020D03F002001480078B4
:103CC00070470000600100200146054810B50068FB
:103CD000FEF722FD08B1002010BD012010BD00003C
:103CE0007001002070B5CC08654201EBC505AB4002
:103CF00001219140491EA9400519025D6E7842EAF2
:103D000006228A431A430255100A687070BD0000EB
:103D10001CB537480168374A914207D1502080F3DB
:103D20001188BFF34F8FBFF36F8FFEE700683149F3
:103D3000491E884207D1502080F31188BFF34F8F6E
:103D4000BFF36F8FFEE72C4908780190FF200870C1
:103D500008788DF800009DF800009DF8002000F024
:103D6000F000904207D0502080F31188BFF34F8FAE
:103D7000BFF36F8FFEE79DF80000204B00F050006E
:103D800018700720986005E09DF8002052008DF81B
:103D90000020401E9DF800201206F5D498600328EC
:103DA00007D0502080F31188BFF34F8FBFF36F8F80
:103DB000FEE74FF440709860019808700C4820307E
:103DC000016841F470010160016841F070410160D7
:103DD000FFF73EFB00205860FCF704FA0848016832
:103DE00041F040410160FCF7E9F900201CBD0000F2
:103DF00000ED00E071C20F4100E400E0A0000020EF
:103E000034EF00E010B502460021012000F00CF86C
:103E1000041E07D00021416001600B460A46C160C4
:103E200000F06AF8204610BD70B50E46050013D0AC
:103E3000D6B105FB06F04830FFF746F8040009D07C
:103E400004F1480120468EB10160C0E90F560121FE
:103E500000F00EF8204670BD502080F31188BFF3AB
:103E60004F8FBFF36F8FFEE70020E4E70060ECE7C1
:103E700070B50D46040025D0FFF788FAD4E90F206D
:103E8000216802FB001161600021A1632168A1602B
:103E90000A46D4E90F01401E00FB0121E1602146E2
:103EA0004FF0FF3001F8440F487004F110008DB15D
:103EB000FFF740F904F12400FFF73CF9FFF786FA19
:103EC000012070BD502080F31188BFF34F8FBFF3E6
:103ED0006F8FFEE721690029F0D000F091FC0028E7
:103EE000ECD004494FF080500860BFF34F8FBFF310
:103EF0006F8FE3E704ED00E02DE9FF4782B01D4638
:103F00008A464FF00008040003D0BAF1000F08D031
:103F100011E0502080F31188BFF34F8FBFF36F8FF4
:103F2000FEE7206C38B1502080F31188BFF34F8F2B
:103F3000BFF36F8FFEE7022D0AD1E06B012807D097
:103F4000502080F31188BFF34F8FBFF36F8FFEE7D0
:103F500000F03AFB3F4F4FF000094FF0805648B950
:103F6000049838B1502080F31188BFF34F8FBFF30E
:103F70006F8FFEE7FFF70AFAA06BE16B884207D369
:103F8000022D05D00498D0B1B8F1000F1AD01EE070
:103F90002A4651462046FEF7E4FC616A19B104F155
:103FA000240000F02DFC20B13E60BFF34F8FBFF323
:103FB0006F8FFFF70BFA012006B0BDE8F087FFF71F
:103FC00005FA22E06846FFF7DBFA4FF00108FFF739
:103FD000FDF9FFF703FCFFF7D9F994F94400401C01
:103FE00001D184F8449094F94500401C01D184F833
:103FF0004590FFF7EBF904A9684600F07FFA30B16D
:104000002046FEF71FFF00F035FC0020D4E7FFF745
:10401000BDF9A06BE16B884213D1FFF7D7F904F12A
:1040200010000499FFF7BAFA2046FEF70BFF00F0E4
:1040300021FC00289ED13E60BFF34F8FBFF36F8FEE
:1040400098E7FFF7C3F92046FEF7FCFE00F012FCEC
:1040500090E7000004ED00E02DE9F0471F46904690
:104060008946040003D0B9F1000F08D011E05020B8
:1040700080F31188BFF34F8FBFF36F8FFEE7206C83
:1040800038B1502080F31188BFF34F8FBFF36F8F8B
:10409000FEE7022F0AD1E06B012807D0502080F301
:1040A0001188BFF34F8FBFF36F8FFEE7FFF7E2F981
:1040B0005020EFF3118680F31188BFF34F8FBFF3C9
:1040C0006F8FA06BE16B884206D3022F04D00020D3
:1040D00086F31188BDE8F08794F945503A46494681
:1040E0002046FEF73EFC681C04D06D1C84F8455049
:1040F0000120EDE7606A0028FAD004F1240000F006
:104100007FFB0028F4D0B8F1000FF1D00121C8F8EE
:104110000010EDE770B50E46040009D0206C78B1B0
:10412000502080F31188BFF34F8FBFF36F8FFEE7EE
:10413000502080F31188BFF34F8FBFF36F8FFEE7DE
:10414000206848B9606838B1502080F31188BFF307
:104150004F8FBFF36F8FFEE7FFF78CF95020EFF31F
:10416000118580F31188BFF34F8FBFF36F8FA16B61
:10417000E06B884218D994F94500491CA163411CA1
:1041800004D0401C84F8450001200EE0606A00283D
:10419000FAD004F1240000F033FB0028F4D0002E04
:1041A000F2D001203060EFE7002085F3118870BD68
:1041B0002DE9F747002683B08A46040003D0BAF100
:1041C000000F08D011E0502080F31188BFF34F8F0B
:1041D000BFF36F8FFEE7206C38B1502080F3118859
:1041E000BFF34F8FBFF36F8FFEE700F0EDF9DFF8FD
:1041F000F4804FF000094FF0805748B9059838B166
:10420000502080F31188BFF34F8FBFF36F8FFEE70D
:10421000FFF7BCF8A56BC5B151462046FEF78EFBF3
:104220006D1EA563206950B104F1100000F0E8FA9A
:1042300028B1C8F80070BFF34F8FBFF36F8FFFF73F
:10424000C5F8012006B0BDE8F087059808B11EB199
:1042500006E0FFF7BBF827E06846FFF791F9012673
:10426000FFF7B4F8FFF7BAFAFFF790F894F94400B3
:10427000401C01D184F8449094F94500401C01D1C0
:1042800084F84590FFF7A2F805A9684600F036F9D2
:10429000002820460AD0FEF7D5FD00F0EBFA2046B4
:1042A000FEF782FC0028B3D00020CBE7FEF77CFCB1
:1042B00090B104F124000599FFF770F92046FEF74C
:1042C000C1FD00F0D7FA0028A2D1C8F80070BFF3F2
:1042D0004F8FBFF36F8F9BE72046FEF7B3FD00F0D3
:1042E000C9FA95E704ED00E02DE9F04790468946CC
:1042F000040003D0B9F1000F08D011E0502080F382
:104300001188BFF34F8FBFF36F8FFEE7206C38B17A
:10431000502080F31188BFF34F8FBFF36F8FFEE7FC
:10432000FFF7A8F85020EFF3118680F31188BFF350
:104330004F8FBFF36F8FA76BF7B194F94450494685
:104340002046FEF7FBFA7F1EA763681C04D06D1C95
:1043500084F84450012010E020690028FAD004F1CC
:10436000100000F04DFA0028F4D0B8F1000FF1D0A1
:104370000121C8F80010EDE7002086F31188BDE8A0
:10438000F08700002DE9F343002683B00400354692
:1043900009D0206C78B1502080F31188BFF34F8F83
:1043A000BFF36F8FFEE7502080F31188BFF34F8F6C
:1043B000BFF36F8FFEE700F007F9DFF83C814FF0A5
:1043C00000094FF0805748B9049838B1502080F365
:1043D0001188BFF34F8FBFF36F8FFEE7FEF7D6FF55
:1043E000A06BC8B1401EA063206810B9FEF7DCFDC9
:1043F0006060206950B104F1100000F001FA28B1AA
:10440000C8F80070BFF34F8FBFF36F8FFEF7DEFF6A
:10441000012005B0BDE8F083049808B166B10FE053
:104420003DB1502080F31188BFF34F8FBFF36F8FE2
:10443000FEE7FEF7CBFF5DE06846FFF7A1F8012637
:10444000FEF7C4FFFFF7CAF9FEF7A0FF94F9440096
:10445000401C01D184F8449094F94500401C01D1DE
:1044600084F84590FEF7B2FF04A9684600F046F8CC
:104470000028204612D0FEF7E5FC00F0FBF92046AC
:10448000FEF792FB0028A9D09DB3FEF77FFF606A7C
:1044900050B3206B0068C0F1070126E0FEF784FBF3
:1044A000E0B1206838B9FEF771FF606800F05EF98E
:1044B0000546FEF78BFF04F124000499FFF76EF820
:1044C0002046FEF7BFFC00F0D5F9002886D1C8F8D9
:1044D0000070BFF34F8FBFF36F8F7FE72046FEF76B
:1044E000B1FC00F0C7F979E700216068FFF7B2F886
:1044F0009FE7FFE700208CE704ED00E02DE9F041A5
:104500000C46050011D0C4B1FEF740FF174B5A69A5
:104510006E682068911B471C17D02F689B6A9F42CA
:1045200019D0964217D8012410E0502080F311884A
:10453000BFF34F8FBFF36F8FFEE7502080F31188DA
:10454000BFF34F8FBFF36F8FFEE70024FEF73EFFF0
:104550002046BDE8F081884205D9401A20602846EF
:10456000FFF70EF8F1E700202060DCE738000020BC
:104570002DE9FF5F8346DDE90E87994616468A4698
:104580009000FEF7A1FC05001AD05420FEF79CFC19
:10459000040012D025630021CDE90241CDE9008756
:1045A0004B46324651465846FEF774FA2046FEF70F
:1045B00035F9012004B0BDE8F09F2846FEF71AFF48
:1045C0004FF0FF30F6E700000548C16919B1806B74
:1045D00018B100207047012070470220704700008A
:1045E0003800002001484069704700003800002072
:1045F00010B5FEF73FFF0148406910BD38000020AC
:104600002DE9F041314C0027A06B18B1206A401C05
:10461000206252E06669761C666113D160680068AA
:1046200038B1502080F31188BFF34F8FBFF36F8FE5
:10463000FEE76068A1686160A060A06A401CA0629B
:10464000FEF776FB206BDFF88880864209D360682E
:10465000006890B16068C068C568686886420FD21B
:1046600020632068C06A00EB800158F8210001280F
:1046700000D90127206A00B321E04FF0FF30EFE7B7
:10468000281DFEF71BFDA86A18B105F11800FEF7FA
:1046900015FDE86A0121A26981401143A16100EB87
:1046A000800108EB8100291DFEF76AFDE86A216898
:1046B000C96A8842CBD30127C9E7FEF73AFD606A91
:1046C00000B101273846BDE8F08100003800002025
:1046D0009802002070B504004FF0000140D0214D39
:1046E0002868844207D0502080F31188BFF34F8F91
:1046F000BFF36F8FFEE7A06C38B1401EA064636CFF
:10470000E26A9A422CD040B12AE0502080F311880E
:10471000BFF34F8FBFF36F8FFEE7201DFEF7CEFC78
:10472000114A012150B9E06A00EB800352F82330AE
:1047300023B9AB6901FA00F08343AB61606CE062BE
:10474000C0F10700A061E06AAB6981401943A9612B
:1047500000EB800002EB8000211DFEF711FD01211E
:10476000084670BD380000209802002070B5040093
:104770004FF0000038D0204DE16A2A68D26A914299
:1047800033D2A069002804DB2868C06AC0F10700A2
:10479000A0611A4E01EB8101606906EB810188423C
:1047A0001ED1201DFEF78AFC012150B9E06A00EB02
:1047B000800256F8222022B9AA6901FA00F0824349
:1047C000AA612868C06AE062AA6981401143A961B0
:1047D00000EB800006EB8000211DFEF7D1FC02E01B
:1047E0002868C06AE062012070BD616C2A68D26AE4
:1047F0009142F8D370BD00003800002098020020DC
:104800002DE9F041C068C468ACB104F11800074656
:10481000FEF754FC154DA86B0126A0B1394614488B
:10482000FEF7AEFCE06A2968C96A88421CD90120FB
:104830006E62BDE8F081502080F31188BFF34F8F86
:10484000BFF36F8FFEE7201DFEF738FCE16AAA690F
:1048500006FA01F01043A86101EB81000449B43964
:1048600001EB8000211DDBE70020E2E7380000209B
:104870004C0300202DE9F0472C4D00242746A86B5F
:1048800038B1FEF783FDA86B401EA863A86B40B14A
:1048900046E0502080F31188BFF34F8FBFF36F8F36
:1048A000FEE72969224E0120D1B3A6F1B409804662
:1048B0003068E8B1F068C46804F11800FEF7FEFB48
:1048C000201DFEF7FBFBE06AAA6908FA00F111431C
:1048D000A96100EB800109EB8100211DFEF750FC6E
:1048E000E06A2968C96A8842E2D3C5F82480DFE714
:1048F0000CB1FEF71DFA2C6A44B14646FFF780FE64
:1049000000B16E62641EF9D100202862686A38B175
:104910000849012738070860BFF34F8FBFF36F8F37
:10492000FEF754FD3846BDE8F0870000380000204F
:104930004C03002004ED00E02DE9F04707469946BE
:1049400016460D462820DDF820A0FEF7BDFA04002B
:104950000ED0B8464F46D1466DB1FDF7C7FF04F102
:104960001801C4F8008081E8E002201DFEF7EDFB8D
:104970002046BDE8F087502080F31188BFF34F8FA9
:10498000BFF36F8FFEE700001CB5FDF7AFFF0C48CB
:10499000806860B10A4902200C31CDE90001C201F2
:1049A000002308A10948FFF7E3FD002807D15020A4
:1049B00080F31188BFF34F8FBFF36F8FFEE71CBDED
:1049C00074000020546D722053766300212E00087D
:1049D000FEB51E4613460200089D4FF0000014D09D
:1049E000124CA768002F0FD0CDE9001302920629C0
:1049F00015DAFFF7E9FD02284FF000030DD0002281
:104A00006946A068FFF778FAFEBD502080F3118850
:104A1000BFF34F8FBFF36F8FFEE72A46F0E7002307
:104A2000324669463846FFF717FBFEBD740000208A
:104A3000844C0008E9160008000000000000000097
:104A400000040000904C000865160008FFFF0000FD
:104A50000000000000040000000000000000000052
:104A60000102030406070809000000000102030414
:104A700000C1814001C0804101C0804100C181402E
:104A800001C0804100C1814000C1814001C080411E
:104A900001C0804100C1814000C1814001C080410E
:104AA00000C1814001C0804101C0804100C18140FE
:104AB00001C0804100C1814000C1814001C08041EE
:104AC00000C1814001C0804101C0804100C18140DE
:104AD00000C1814001C0804101C0804100C18140CE
:104AE00001C0804100C1814000C1814001C08041BE
:104AF00001C0804100C1814000C1814001C08041AE
:104B000000C1814001C0804101C0804100C181409D
:104B100000C1814001C0804101C0804100C181408D
:104B200001C0804100C1814000C1814001C080417D
:104B300000C1814001C0804101C0804100C181406D
:104B400001C0804100C1814000C1814001C080415D
:104B500001C0804100C1814000C1814001C080414D
:104B600000C1814001C0804101C0804100C181403D
:104B700000C0C101C30302C2C60607C705C5C404FD
:104B8000CC0C0DCD0FCFCE0E0ACACB0BC90908C86D
:104B9000D81819D91BDBDA1A1EDEDF1FDD1D1CDC5D
:104BA00014D4D515D71716D6D21213D311D1D010CD
:104BB000F03031F133F3F23236F6F737F53534F4BD
:104BC0003CFCFD3DFF3F3EFEFA3A3BFB39F9F8382D
:104BD00028E8E929EB2B2AEAEE2E2FEF2DEDEC2C1D
:104BE000E42425E527E7E62622E2E323E12120E08D
:104BF000A06061A163A3A26266A6A767A56564A47D
:104C00006CACAD6DAF6F6EAEAA6A6BAB69A9A868EC
:104C100078B8B979BB7B7ABABE7E7FBF7DBDBC7CDC
:104C2000B47475B577B7B67672B2B373B17170B04C
:104C3000509091519353529296565797559594543C
:104C40009C5C5D9D5F9F9E5E5A9A9B5B99595898AC
:104C5000884849894B8B8A4A4E8E8F4F8D4D4C8C9C
:104C6000448485458747468682424383418180400C
:104C70009C4C0008213000080000000000000000EB
:104C80000004000064656661756C745461736B00A8
:104C90004D6F64627573546573740000706F77654F
:104CA000724374725461736B00000000CC4C0008B6
:104CB0000000002098010000B8030008184D00080B
:104CC00098010020585E0000C41B00080128320132
:104CD0008210036D24F41AAA0191022E02321113DC
:104CE000291D33080413811E3308031A2F0829CC09
:104CF000132B2033080613991F3308171AD11829CC
:104D0000E81A6D3032051A4318320F1ACB0829778A
:084D10001ACF18016800000031
:040000050800018965
:00000001FF
